:1000000004308A00CD2C0000FF00030E8301A10004
:100010000A08A0008A010408A2007708A300780853
:10002000A4007908A5007A08A600831383128B1D0B
:100030001B280B1832288C308400001C21280C1837
:100040003528220884002308F7002408F800250832
:10005000F9002608FA0020088A00210E8300FF0E0E
:100060007F0E09008A110A125A2A8A110A123C29A3
:100070000830F80000008711A811280883168700AF
:1000800000008312C70D0712031C4C2828162808ED
:1000900083168700502883122812280883168700A9
:1000A00000008312A8152808831687008312871D75
:1000B0005728F80B3A2800008711A8112808831642
:1000C0008700000083122816280883168700000086
:1000D00000008312A8152808831687008312871D45
:1000E0006F28F8010000071A78148711A811280852
:1000F00083168700831207122812280883168700A8
:10010000831208000830C8007708C900281628089C
:100110008316870000008312A8152808831687001D
:100120008312871D9128071A0314071E0310F80D68
:100130000000A81128088316870083128711C80BB6
:1001400086282816280883168700000083120712C5
:1001500049080319B028281228088316870083123B
:100160000000A8152808831687008312871DB6286B
:1001700000008711A8112808831687000000831249
:1001800007122812280883168700831208002816F1
:100190002808831687000430F700F70BCD28831258
:1001A000A8152808831687000330F700F70BD62818
:1001B0008312071228122808831687000430F700DC
:1001C000F70BE02883128711A811280883168700EF
:1001D000D0308312C70038200130C70038202816DD
:1001E0002808831687000430F700F70BF5288312E0
:1001F000A8152808831687000330F700F70BFE28A0
:100200008312871D012907122812280883168700E8
:100210000430F700F70B0A2983128711A811280868
:1002200083168700D1308312C70038200130F700D1
:1002300082207808AD00F70182207808AE002812ED
:1002400028088316870000008312A8152808831643
:1002500087008312871D2A290430F700F70B2E2907
:100260003129000028162808831687000430F7007B
:10027000F70B382983120800BF0A3F080A3C031D08
:100280006A29C7202D080F39333E840083130008E4
:10029000AC002D0EF7000F30F7057708333E8400D1
:1002A00083130008AB002E080F39333E84008313FC
:1002B0000008AA002E0EF7000F30F7057708333E2E
:1002C000840083130008A9008E010B308F00DC30FE
:1002D0008E00BF010C108A110A12212847308400B9
:1002E00083130008031981290630F800F701F70B82
:1002F0007729F80B76297B30F700F70B7D29800BE7
:1003000074290800470F85299F2947080F39C00025
:10031000490B91294008093C031890290630C7076A
:10032000972940080F3C031D97290630C70247084C
:10033000603C0319C7014708F800BA29BA29480FD9
:10034000A229BA2948080F39C000490BAE29400834
:10035000093C0318AD290630C807B42940080F3CF2
:10036000031DB4290630C8024808243C0319C801FB
:100370004808F8000800281628088316870004306B
:10038000F700F70BC1298312A815280883168700E8
:100390000330F700F70BCA29831207122812280826
:1003A000831687000430F700F70BD42983128711D6
:1003B000A811280883168700D0308312C700382080
:1003C0000130C70038202F08C70038203008C70088
:1003D0003820281228088316870000008312A815E9
:1003E0002808831687008312871DF4290430F7003C
:1003F000F70BF829FB290000281628088316870028
:100400000430F700F70B022A83120800CC014C08D5
:10041000073C031C222ACB1B0F2A0810102A0814A1
:10042000831608108810831288101030F700F70B1D
:10043000172A000083168810831288140310CB0D2E
:10044000CC0A072A08004708CB0006221030F70024
:10045000F70B282A00004808CB0006221030F700CE
:10046000F70B302A00004908CB0006221030F700B5
:10047000F70B382A00004A08CB0006221030F7009C
:10048000F70B402A00008316081183120811103060
:10049000F700F70B492A000083160811831208158C
:1004A0001030F700F70B522A0000831688118312D0
:1004B000881108008316061483120618752A143052
:1004C000C7006E218316061483120618742A831639
:1004D00006148312061C672A3D14BE0A3E08023C1D
:1004E0000318742A0130BE00CB2B831686148312A6
:1004F0008618F52A1430C7006E21831686148312DD
:100500008618F42A831686148312861C822ABD1844
:10051000AF2A3E0B9B2A2D08AF002E08B000AF0A71
:100520002F08C700FF30C8000130C90082217808B9
:10053000AF00BB21AE2A3E08023C031DAE2A2D08A7
:10054000AF002E08B000B00AFF30C7003008C80066
:100550000130C90082217808B000BB21F42A2D089F
:10056000B1002E08B2003E0BD32AB10A3108C700F1
:10057000FF30C8000130C90082217808B10031087D
:100580000F39333E840083130008AC00310EF700AE
:100590000F30F7057708333E840083130008AB0063
:1005A0003108AD00F42A3E08023C031DF42AB20AC9
:1005B000FF30C7003208C8000130C9008221780826
:1005C000B20032080F39333E840083130008AA00BA
:1005D000320EF7000F30F7057708333E840083139F
:1005E0000008A9003208AE00CB2B83160615831233
:1005F0000619812B1430C7006E218316061583124D
:100600000619802B831606158312061D022BBD18B2
:10061000352B3E0B1E2B2D08AF002E08B000AF036C
:100620002F0F142B5930AF002F08C700FF30C80020
:10063000C90182217808AF00BB21342B3E08023C5F
:10064000031D342B2E08B0002D08AF00B003300F6F
:100650002B2B2330B000FF30C7003008C800C90181
:1006600082217808B000BB21802B2D08B1002E0814
:10067000B2003E0B5C2BB103310F402B5930B1005F
:100680003108C700FF30C800C90182217808B100D5
:1006900031080F39333E840083130008AC00310E5B
:1006A000F7000F30F7057708333E84008313000806
:1006B000AB003108AD00802B3E08023C031D802BAF
:1006C000B203320F652B2330B200FF30C70032086F
:1006D000C800C90182217808B20032080F39333EC0
:1006E000840083130008AA00320EF7000F30F705CC
:1006F0007708333E840083130008A9003208AE0057
:10070000CB2B8316861583128619AF2B1430C700A6
:100710006E218316861583128619AE2B83168615D5
:100720008312861D8E2B2908C7002A08C8002B08B3
:10073000C9002C08CA0023223D1CA02B3D10BE017D
:10074000253090008E010B308F00DC308E00BD1CF8
:10075000AD2B8914831689108312C720CB2B8316E7
:1007600006168312061ACB2B1430C7006E2183168F
:1007700006168312061ACB2B831606168312061E44
:10078000BC2B3D14BD14BE0A3E08023C0318CA2B04
:100790000130BE0090010B108A110A1221283E0B75
:1007A000092CA7018B1BA7178B132908C7002A0840
:1007B000C8002B08C9002C08CA002322A71B8B17CE
:1007C0000230C100A7018B1BA7178B139630C700FF
:1007D0006E21A71B8B17C10BE22BA7018B1BA71741
:1007E0008B132908C7002A08C800FF30C900CA00B7
:1007F0002322A71B8B170230C100A7018B1BA71751
:100800008B139630C7006E21A71B8B17C10BFD2BD6
:10081000442C3E08023C031D442CA7018B1BA71748
:100820008B132908C7002A08C8002B08C9002C0808
:10083000CA002322A71B8B170230C100A7018B1B04
:10084000A7178B139630C7006E21A71B8B17C10B00
:100850001E2CA7018B1BA7178B13FF30C700C800E6
:100860002B08C9002C08CA002322A71B8B170230B3
:10087000C100A7018B1BA7178B139630C7006E21F1
:10088000A71B8B17C10B392C8A110A12322D0914A0
:100890008316091002308312C100A7018B1BA71712
:1008A0008B13FA30C7006E21A71B8B17C10B4D2C81
:1008B00009108316091002308312C100A7018B1B97
:1008C000A7178B13FA30C7006E21A71B8B17C10B1C
:1008D0005E2C8A110A12312D2D0831020319722C57
:1008E0000030732C0130C1002E08320203197A2C1B
:1008F00000307B2C0130C1050030BD1801304105AE
:100900000319CA2C05148316051083128910831647
:1009100089108312A7018B1BA7178B133230C700D6
:100920006E21A71B8B1705108316051083128914DF
:10093000831689108312A7018B1BA7178B133230E4
:10094000C7006E21A71B8B17051483160510831291
:100950008910831689108312A7018B1BA7178B138D
:100960006430C7006E21A71B8B1705108316051076
:1009700083128914831689108312A7018B1BA71772
:100980008B136430C7006E21A71B8B178910831649
:10099000891083128A110A12322D03081F3983002D
:1009A000FF30A8003D10BD10BE01BF018316031724
:1009B0000908C039890003131F129F120030031762
:1009C000880083128701880189018313C0300313D3
:1009D000B300F930B400A430B500B030B60099309F
:1009E000B7009230B8008230B900F830BA008030D9
:1009F000BB009030BC0000308316880085000910D1
:100A000089100911891183120510831605108312AC
:100A1000891083168910C03083128B0483160C143E
:100A20003530831290008B15FF30831696048312A5
:100A30008E010B308F00DC308E003D1C212DCF2B22
:100A4000322DA7018B1BA7178B132908C7002A0873
:100A5000C8002B08C9002C08CA002322A71B8B172B
:080A6000472C6C2C1D2D6300D6
:04400E00E22FFF3F5F
:00000001FF
;PIC16F887
;CRC=9AAE  CREATED="28-Apr-16 09:27"
